{
  "contractName": "Game",
  "abi": [
    {
      "constant": false,
      "inputs": [
        {
          "internalType": "uint256",
          "name": "number",
          "type": "uint256"
        }
      ],
      "name": "pushNumber",
      "outputs": [],
      "payable": false,
      "stateMutability": "nonpayable",
      "type": "function"
    }
  ],
  "bytecode": "0x608060405234801561001057600080fd5b50610149806100206000396000f3fe608060405234801561001057600080fd5b506004361061002b5760003560e01c80632bfe180514610030575b600080fd5b61005c6004803603602081101561004657600080fd5b810190808035906020019092919050505061005e565b005b60008060003373ffffffffffffffffffffffffffffffffffffffff1673ffffffffffffffffffffffffffffffffffffffff16815260200190815260200160002060009054906101000a900460ff16905080156100b957600080fd5b60016000803373ffffffffffffffffffffffffffffffffffffffff1673ffffffffffffffffffffffffffffffffffffffff16815260200190815260200160002060006101000a81548160ff021916908315150217905550505056fea265627a7a72315820e4ef2634b9529fabe47fa7397934b8149fe3980cb3491bc9583d4a98e0649f6764736f6c63430005100032",
  "source": "pragma solidity >=0.4.22 <0.9.0;\r\n\r\ncontract Game {\r\n//    address payable public ac;\r\n//    uint public value;\r\n\r\n    mapping(address => bool) gamer;\r\n\r\n    function pushNumber(uint number) public {\r\n        bool hasPushed =  gamer[msg.sender];\r\n        require(!hasPushed);\r\n        gamer[msg.sender] = true;\r\n    }\r\n\r\n//    function init() public payable {\r\n//        //ac = payable(msg.sender);\r\n//       // msg.sender\r\n//        value = msg.value/2;\r\n//    }\r\n}\r\n",
  "sourcePath": "D:/Univercity/blockchain/secondLaba/contracts/Game.sol",
  "compiler": {
    "name": "solc",
    "version": "0.5.16+commit.9c3226ce.Emscripten.clang"
  },
  "schemaVersion": "3.3.4",
  "updatedAt": "2021-04-04T17:22:10.074Z",
  "devdoc": {
    "methods": {}
  },
  "userdoc": {
    "methods": {}
  }
}