{
  "contractName": "Game",
  "abi": [
    {
      "inputs": [],
      "name": "value",
      "outputs": [
        {
          "internalType": "uint256",
          "name": "",
          "type": "uint256"
        }
      ],
      "stateMutability": "view",
      "type": "function"
    },
    {
      "inputs": [],
      "name": "regForPlay1",
      "outputs": [],
      "stateMutability": "nonpayable",
      "type": "function"
    },
    {
      "inputs": [],
      "name": "regForPlay2",
      "outputs": [],
      "stateMutability": "nonpayable",
      "type": "function"
    }
  ],
  "bytecode": "0x608060405234801561001057600080fd5b5061016d806100206000396000f3fe608060405234801561001057600080fd5b50600436106100415760003560e01c80633fa4f245146100465780639203efa114610064578063ca2313e51461006e575b600080fd5b61004e610078565b60405161005b9190610112565b60405180910390f35b61006c61007e565b005b6100766100c1565b005b60025481565b33600160006101000a81548173ffffffffffffffffffffffffffffffffffffffff021916908373ffffffffffffffffffffffffffffffffffffffff160217905550565b336000806101000a81548173ffffffffffffffffffffffffffffffffffffffff021916908373ffffffffffffffffffffffffffffffffffffffff160217905550565b61010c8161012d565b82525050565b60006020820190506101276000830184610103565b92915050565b600081905091905056fea26469706673582212209f04bccb0145ed265373221930f1b6f2ebd5b1babbbfa6a2e0f65821b7d8d6f964736f6c63430008030033",
  "immutableReferences": {},
  "source": "pragma solidity >=0.7.0 <0.9.0;\r\n\r\ncontract Game {\r\n//    address payable player1;\r\n//    address payable player2;\r\n    address player1;\r\n    address player2;\r\n    uint public value;\r\n\r\n//    function init() public payable {\r\n//        player1 = payable(msg.sender);\r\n//        value = msg.value/2;\r\n//    }\r\n\r\n//    modifier isRegistered()\r\n//    {\r\n//        require(msg.sender != player1 && msg.sender != player2);\r\n//        _;\r\n//    }\r\n//    function Play() public {\r\n//        if (int(player1) == 0)\r\n//            player1 = msg.sender;\r\n//        else if (int(player2) == 0)\r\n//            player2 = msg.sender;\r\n//    }\r\n//    function regForPlay1() public {\r\n//            player1 = payable (msg.sender);\r\n//    }\r\n//    function regForPlay2() public {\r\n//            player2 = payable (msg.sender);\r\n//    }\r\n    function regForPlay1() public {\r\n        player1 = msg.sender;\r\n    }\r\n    function regForPlay2() public {\r\n        player2 = msg.sender;\r\n    }\r\n}\r\n",
  "sourcePath": "D:/Univercity/blockchain/secondLaba/contracts/Game.sol",
  "compiler": {
    "name": "solc",
    "version": "0.8.3+commit.8d00100c.Emscripten.clang"
  },
  "schemaVersion": "3.3.4",
  "updatedAt": "2021-04-09T06:20:22.430Z",
  "devdoc": {
    "kind": "dev",
    "methods": {},
    "version": 1
  },
  "userdoc": {
    "kind": "user",
    "methods": {},
    "version": 1
  }
}